18:50:47.915508 IP 165.22.231.65.ssh > cpe7c9a54ce584e-cm7c9a54ce584c.cpe.net.cable.rogers.com.51608: Flags [P.], seq 1567502592:1567502700, ack 2430241859, win 501, length 108
	0x0000:  fe00 0000 0101 62f6 b6ea d50d 0800 4510  ......b.......E.
	0x0010:  0094 1824 4000 4006 59d7 a516 e741 63e4  ...$@.@.Y....Ac.
	0x0020:  d81c 0016 c998 5d6e 3100 90da 8c43 5018  ......]n1....CP.
	0x0030:  01f5 c8df 0000 094e 3f1f aee7 1abe 28d5  .......N?.....(.
	0x0040:  a364 1283 c16c 18de 8fd4 d656 f7bb f0bf  .d...l.....V....
	0x0050:  ad8f b4ee 9ac1 f226 5e38 c857 d806 31d1  .......&^8.W..1.
	0x0060:  724c 1636 d2e7 afb7 4e1c 4cf5 3966 246c  rL.6....N.L.9f$l
	0x0070:  1667 8b92 2a65 1645 ab8e f22f 4357 96d6  .g..*e.E.../CW..
	0x0080:  4bb1 808e eff8 ec5a 0405 0e78 bbb3 6f58  K......Z...x..oX
	0x0090:  db99 2834 5f76 cc80 bd0c 5db2 8746 4527  ..(4_v....]..FE'
	0x00a0:  ec58                                     .X
18:50:47.915628 IP 165.22.231.65.ssh > cpe7c9a54ce584e-cm7c9a54ce584c.cpe.net.cable.rogers.com.51608: Flags [P.], seq 108:144, ack 1, win 501, length 36
	0x0000:  fe00 0000 0101 62f6 b6ea d50d 0800 4510  ......b.......E.
	0x0010:  004c 1825 4000 4006 5a1e a516 e741 63e4  .L.%@.@.Z....Ac.
	0x0020:  d81c 0016 c998 5d6e 316c 90da 8c43 5018  ......]n1l...CP.
	0x0030:  01f5 c897 0000 27a8 0cb6 9ee2 15a9 353d  ......'.......5=
	0x0040:  5fdb 4b66 b04d 88eb b616 f3f8 5dcc 5e6d  _.Kf.M......].^m
	0x0050:  7d1f f35f 31af 75d6 e398                 }.._1.u...
18:50:47.915800 IP 165.22.231.65.ssh > cpe7c9a54ce584e-cm7c9a54ce584c.cpe.net.cable.rogers.com.51608: Flags [P.], seq 144:252, ack 1, win 501, length 108
	0x0000:  fe00 0000 0101 62f6 b6ea d50d 0800 4510  ......b.......E.
	0x0010:  0094 1826 4000 4006 59d5 a516 e741 63e4  ...&@.@.Y....Ac.
	0x0020:  d81c 0016 c998 5d6e 3190 90da 8c43 5018  ......]n1....CP.
	0x0030:  01f5 c8df 0000 9ed1 6d06 d341 5456 6b9d  ........m..ATVk.
	0x0040:  6b6d 99ba 4351 4a3b f013 31e5 14dc 1de1  km..CQJ;..1.....
	0x0050:  1437 e815 146a b0b1 51be 1d07 5758 41f0  .7...j..Q...WXA.
	0x0060:  695e 0e98 1737 f02d 060d 625c efce 50d1  i^...7.-..b\..P.
	0x0070:  99de 4aa6 02f1 322f ad02 64d4 8e52 278d  ..J...2/..d..R'.
	0x0080:  b28d d82a 6492 a433 9d05 7aed f3bf 2321  ...*d..3..z...#!
	0x0090:  2d00 8143 dcb2 7361 971c 4d98 644f f440  -..C..sa..M.dO.@
	0x00a0:  366c                                     6l
18:50:47.915902 IP 165.22.231.65.ssh > cpe7c9a54ce584e-cm7c9a54ce584c.cpe.net.cable.rogers.com.51608: Flags [P.], seq 252:288, ack 1, win 501, length 36
	0x0000:  fe00 0000 0101 62f6 b6ea d50d 0800 4510  ......b.......E.
	0x0010:  004c 1827 4000 4006 5a1c a516 e741 63e4  .L.'@.@.Z....Ac.
	0x0020:  d81c 0016 c998 5d6e 31fc 90da 8c43 5018  ......]n1....CP.
	0x0030:  01f5 c897 0000 6e7c 0be6 aafc f0dd 34dc  ......n|......4.
	0x0040:  6f7a 4b02 df5b 94ff 10ab 41c1 8364 5f6b  ozK..[....A..d_k
	0x0050:  5b86 94c8 7b50 80b4 2850                 [...{P..(P
18:50:47.927526 IP cpe7c9a54ce584e-cm7c9a54ce584c.cpe.net.cable.rogers.com.51608 > 165.22.231.65.ssh: Flags [.], ack 108, win 2083, length 0
	0x0000:  62f6 b6ea d50d fe00 0000 0101 0800 4500  b.............E.
	0x0010:  0028 8d3a 4000 7906 ac3c 63e4 d81c a516  .(.:@.y..<c.....
	0x0020:  e741 c998 0016 90da 8c43 5d6e 316c 5010  .A.......C]n1lP.
	0x0030:  0823 69b1 0000 0000 0000 0000            .#i.........
18:50:47.927527 IP cpe7c9a54ce584e-cm7c9a54ce584c.cpe.net.cable.rogers.com.51608 > 165.22.231.65.ssh: Flags [.], ack 252, win 2082, length 0
	0x0000:  62f6 b6ea d50d fe00 0000 0101 0800 4500  b.............E.
	0x0010:  0028 8d3b 4000 7906 ac3b 63e4 d81c a516  .(.;@.y..;c.....
	0x0020:  e741 c998 0016 90da 8c43 5d6e 31fc 5010  .A.......C]n1.P.
	0x0030:  0822 6922 0000 0000 0000 0000            ."i"........
18:50:47.934154 IP 49.88.112.75.43864 > 165.22.231.65.ssh: Flags [.], ack 606494183, win 229, options [nop,nop,TS val 382578965 ecr 4171337714], length 0
	0x0000:  62f6 b6ea d50d fe00 0000 0101 0800 4500  b.............E.
	0x0010:  0034 8b94 4000 3006 9134 3158 704b a516  .4..@.0..41XpK..
	0x0020:  e741 ab58 0016 9a8a 244f 2426 5de7 8010  .A.X....$O$&]...
	0x0030:  00e5 0b10 0000 0101 080a 16cd b115 f8a1  ................
	0x0040:  8ff2                                     ..
18:50:47.934311 IP 49.88.112.75.43864 > 165.22.231.65.ssh: Flags [P.], seq 0:15, ack 1, win 229, options [nop,nop,TS val 382578965 ecr 4171337714], length 15
	0x0000:  62f6 b6ea d50d fe00 0000 0101 0800 4500  b.............E.
	0x0010:  0043 8b95 4000 3006 9124 3158 704b a516  .C..@.0..$1XpK..
	0x0020:  e741 ab58 0016 9a8a 244f 2426 5de7 8018  .A.X....$O$&]...
	0x0030:  00e5 0566 0000 0101 080a 16cd b115 f8a1  ...f............
	0x0040:  8ff2 2d48 5353 322e 302d 5055 5454 590d  ..-HSS2.0-PUTTY.
	0x0050:  0a                                       .
18:50:47.958308 IP 165.22.231.65.ssh > 49.88.112.75.43864: Flags [P.], seq 1:42, ack 0, win 510, options [nop,nop,TS val 4171337993 ecr 382578965], length 41
	0x0000:  fe00 0000 0101 62f6 b6ea d50d 0800 4500  ......b.......E.
	0x0010:  005d 1985 4000 4006 f31a a516 e741 3158  .]..@.@......A1X
	0x0020:  704b 0016 ab58 2426 5de7 9a8a 244f 8018  pK...X$&]...$O..
	0x0030:  01fe 2e4b 0000 0101 080a f8a1 9109 16cd  ...K............
	0x0040:  b115 5353 482d 322e 302d 4f70 656e 5353  ..SSH-2.0-OpenSS
	0x0050:  485f 382e 3270 3120 5562 756e 7475 2d34  H_8.2p1.Ubuntu-4
	0x0060:  7562 756e 7475 302e 320d 0a              ubuntu0.2..
18:50:47.965565 IP cpe7c9a54ce584e-cm7c9a54ce584c.cpe.net.cable.rogers.com.51608 > 165.22.231.65.ssh: Flags [.], ack 288, win 2082, length 0
	0x0000:  62f6 b6ea d50d fe00 0000 0101 0800 4500  b.............E.
	0x0010:  0028 8d3c 4000 7906 ac3a 63e4 d81c a516  .(.<@.y..:c.....
	0x0020:  e741 c998 0016 90da 8c43 5d6e 3220 5010  .A.......C]n2.P.
	0x0030:  0822 68fe 0000 0000 0000 0000            ."h.........
18:50:48.135074 IP 180.76.235.75.41810 > 165.22.231.65.ssh: Flags [P.], seq 2963788137:2963788625, ack 3449713475, win 245, options [nop,nop,TS val 1408065018 ecr 4230274615], length 488
	0x0000:  62f6 b6ea d50d fe00 0000 0101 0800 4500  b.............E.
	0x0010:  021c 8381 4000 2d06 9c6a b44c eb4b a516  ....@.-..j.L.K..
	0x0020:  e741 a352 0016 b0a7 d169 cd9e 7343 8018  .A.R.....i..sC..
	0x0030:  00f5 f3fb 0000 0101 080a 53ed 5dfa fc24  ..........S.]..$
	0x0040:  de37 0000 01b4 0a14 87f7 61b2 5aa0 ec2b  .7........a.Z..+
	0x0050:  e1a9 b585 a538 60a2 0000 0066 6375 7276  .....8`....fcurv
	0x0060:  6532 3535 3139 2d73 6861 3235 3640 6c69  e25519-sha256@li
	0x0070:  6273 7368 2e6f 7267 2c65 6364 682d 7368  bssh.org,ecdh-sh
	0x0080:  6132 2d6e 6973 7470 3235 362c 6469 6666  a2-nistp256,diff
	0x0090:  6965 2d68 656c 6c6d 616e 2d67 726f 7570  ie-hellman-group
	0x00a0:  3134 2d73 6861 312c 6469 6666 6965 2d68  14-sha1,diffie-h
	0x00b0:  656c 6c6d 616e 2d67 726f 7570 312d 7368  ellman-group1-sh
	0x00c0:  6131 0000 0023 6563 6473 612d 7368 6132  a1...#ecdsa-sha2
	0x00d0:  2d6e 6973 7470 3235 362c 7373 682d 7273  -nistp256,ssh-rs
	0x00e0:  612c 7373 682d 6473 7300 0000 6461 6573  a,ssh-dss...daes
	0x00f0:  3235 362d 6374 722c 6165 7331 3932 2d63  256-ctr,aes192-c
	0x0100:  7472 2c61 6573 3132 382d 6374 722c 6165  tr,aes128-ctr,ae
	0x0110:  7332 3536 2d63 6263 2c61 6573 3139 322d  s256-cbc,aes192-
	0x0120:  6362 632c 6165 7331 3238 2d63 6263 2c62  cbc,aes128-cbc,b
	0x0130:  6c6f 7766 6973 682d 6362 632c 3364 6573  lowfish-cbc,3des
	0x0140:  2d63 6263 2c64 6573 2d63 6263 2d73 7368  -cbc,des-cbc-ssh
	0x0150:  3100 0000 6461 6573 3235 362d 6374 722c  1...daes256-ctr,
	0x0160:  6165 7331 3932 2d63 7472 2c61 6573 3132  aes192-ctr,aes12
	0x0170:  382d 6374 722c 6165 7332 3536 2d63 6263  8-ctr,aes256-cbc
	0x0180:  2c61 6573 3139 322d 6362 632c 6165 7331  ,aes192-cbc,aes1
	0x0190:  3238 2d63 6263 2c62 6c6f 7766 6973 682d  28-cbc,blowfish-
	0x01a0:  6362 632c 3364 6573 2d63 6263 2c64 6573  cbc,3des-cbc,des
	0x01b0:  2d63 6263 2d73 7368 3100 0000 0968 6d61  -cbc-ssh1....hma
	0x01c0:  632d 7368 6131 0000 0009 686d 6163 2d73  c-sha1....hmac-s
	0x01d0:  6861 3100 0000 046e 6f6e 6500 0000 046e  ha1....none....n
	0x01e0:  6f6e 6500 0000 0000 0000 0000 0000 0000  one.............
	0x01f0:  0000 0000 0000 0000 0000 0000 002c 061e  .............,..
	0x0200:  0000 0020 b932 c65d 7f90 68de 82da 7f9f  .....2.]..h.....
	0x0210:  0a40 1bcf c1e2 25b3 4e00 88c7 62b7 2f09  .@....%.N...b./.
	0x0220:  325b 2061 0000 0000 0000                 2[.a......
18:50:48.135131 IP 165.22.231.65.ssh > 180.76.235.75.41810: Flags [.], ack 488, win 507, options [nop,nop,TS val 4230275968 ecr 1408065018], length 0
	0x0000:  fe00 0000 0101 62f6 b6ea d50d 0800 4500  ......b.......E.
	0x0010:  0034 7d0e 4000 4006 91c5 a516 e741 b44c  .4}.@.@......A.L
	0x0020:  eb4b 0016 a352 cd9e 7343 b0a7 d351 8010  .K...R..sC...Q..
	0x0030:  01fb 2c17 0000 0101 080a fc24 e380 53ed  ..,........$..S.
	0x0040:  5dfa                                     ].
18:50:48.145372 IP 165.22.231.65.ssh > 180.76.235.75.41810: Flags [P.], seq 1:281, ack 488, win 507, options [nop,nop,TS val 4230275978 ecr 1408065018], length 280
	0x0000:  fe00 0000 0101 62f6 b6ea d50d 0800 4500  ......b.......E.
	0x0010:  014c 7d0f 4000 4006 90ac a516 e741 b44c  .L}.@.@......A.L
	0x0020:  eb4b 0016 a352 cd9e 7343 b0a7 d351 8018  .K...R..sC...Q..
	0x0030:  01fb 2d2f 0000 0101 080a fc24 e38a 53ed  ..-/.......$..S.
	0x0040:  5dfa 0000 0104 091f 0000 0068 0000 0013  ]..........h....
	0x0050:  6563 6473 612d 7368 6132 2d6e 6973 7470  ecdsa-sha2-nistp
	0x0060:  3235 3600 0000 086e 6973 7470 3235 3600  256....nistp256.
	0x0070:  0000 4104 13dd 010a 6465 b922 8433 02fd  ..A.....de.".3..
	0x0080:  8339 b1fc 0e42 bfbf 1381 981f a570 9f69  .9...B.......p.i
	0x0090:  98c7 f8cf 2b85 be4d f073 1166 2816 8141  ....+..M.s.f(..A
	0x00a0:  8b85 e9c8 71ec 64e5 997b e3e8 7622 2ce7  ....q.d..{..v",.
	0x00b0:  5012 ce30 0000 0020 fcc9 e2e5 05c5 728a  P..0..........r.
	0x00c0:  73c8 08f9 e27d 3139 de18 e7a5 5e94 731e  s....}19....^.s.
	0x00d0:  ed00 9176 12ba 8f78 0000 0065 0000 0013  ...v...x...e....
	0x00e0:  6563 6473 612d 7368 6132 2d6e 6973 7470  ecdsa-sha2-nistp
	0x00f0:  3235 3600 0000 4a00 0000 2100 8c9a 1360  256...J...!....`
	0x0100:  81b8 546b 4235 714a 118b 7839 4f28 e306  ..TkB5qJ..x9O(..
	0x0110:  98fd c532 e932 71ce 91cd bb74 0000 0021  ...2.2q....t...!
	0x0120:  0088 5a42 88ab e6f7 2e6d 1ca8 fd8d 1836  ..ZB.....m.....6
	0x0130:  4c7a 2e01 9203 95f4 b473 7ab0 3588 eae2  Lz.......sz.5...
	0x0140:  f300 0000 0000 0000 0000 0000 000c 0a15  ................
	0x0150:  0000 0000 0000 0000 0000                 ..........
18:50:48.213172 IP 49.88.112.75.43864 > 165.22.231.65.ssh: Flags [.], ack 42, win 229, options [nop,nop,TS val 382579035 ecr 4171337993], length 0
	0x0000:  62f6 b6ea d50d fe00 0000 0101 0800 4500  b.............E.
	0x0010:  0034 8b96 4000 3006 9132 3158 704b a516  .4..@.0..21XpK..
	0x0020:  e741 ab58 0016 9a8a 245e 2426 5e10 8010  .A.X....$^$&^...
	0x0030:  00e5 097b 0000 0101 080a 16cd b15b f8a1  ...{.........[..
	0x0040:  9109                                     ..
18:50:48.378321 IP 180.76.235.75.41810 > 165.22.231.65.ssh: Flags [.], ack 281, win 262, options [nop,nop,TS val 1408065256 ecr 4230275978], length 0
	0x0000:  62f6 b6ea d50d fe00 0000 0101 0800 4500  b.............E.
	0x0010:  0034 8382 4000 2d06 9e51 b44c eb4b a516  .4..@.-..Q.L.K..
	0x0020:  e741 a352 0016 b0a7 d351 cd9e 745b 8010  .A.R.....Q..t[..
	0x0030:  0106 4de5 0000 0101 080a 53ed 5ee8 fc24  ..M.......S.^..$
	0x0040:  e38a                                     ..
18:50:48.393882 IP 180.76.235.75.41810 > 165.22.231.65.ssh: Flags [P.], seq 488:504, ack 281, win 262, options [nop,nop,TS val 1408065276 ecr 4230275978], length 16
	0x0000:  62f6 b6ea d50d fe00 0000 0101 0800 4500  b.............E.
	0x0010:  0044 8383 4000 2d06 9e40 b44c eb4b a516  .D..@.-..@.L.K..
	0x0020:  e741 a352 0016 b0a7 d351 cd9e 745b 8018  .A.R.....Q..t[..
	0x0030:  0106 4398 0000 0101 080a 53ed 5efc fc24  ..C.......S.^..$
	0x0040:  e38a 0000 000c 0a15 0000 0000 0000 0000  ................
	0x0050:  0000                                     ..
18:50:48.393931 IP 165.22.231.65.ssh > 180.76.235.75.41810: Flags [.], ack 504, win 507, options [nop,nop,TS val 4230276227 ecr 1408065276], length 0
	0x0000:  fe00 0000 0101 62f6 b6ea d50d 0800 4500  ......b.......E.
	0x0010:  0034 7d10 4000 4006 91c3 a516 e741 b44c  .4}.@.@......A.L
	0x0020:  eb4b 0016 a352 cd9e 745b b0a7 d361 8010  .K...R..t[...a..
	0x0030:  01fb 2c17 0000 0101 080a fc24 e483 53ed  ..,........$..S.
	0x0040:  5efc                                     ^.
18:50:48.433760 IP 165.22.231.65.ssh > 119.29.155.249.43588: Flags [F.], seq 552722528, ack 3713004232, win 507, options [nop,nop,TS val 1915177090 ecr 752137560], length 0
	0x0000:  fe00 0000 0101 62f6 b6ea d50d 0800 4500  ......b.......E.
	0x0010:  0034 289e 4000 4006 72b7 a516 e741 771d  .4(.@.@.r....Aw.
	0x0020:  9bf9 0016 aa44 20f1 e060 dd4f f2c8 8011  .....D...`.O....
	0x0030:  01fb 9f95 0000 0101 080a 7227 4882 2cd4  ..........r'H.,.
	0x0040:  b558                                     .X
18:50:48.617427 IP 180.76.235.75.41810 > 165.22.231.65.ssh: Flags [P.], seq 504:556, ack 281, win 262, options [nop,nop,TS val 1408065500 ecr 4230276227], length 52
	0x0000:  62f6 b6ea d50d fe00 0000 0101 0800 4500  b.............E.
	0x0010:  0068 8384 4000 2d06 9e1b b44c eb4b a516  .h..@.-....L.K..
	0x0020:  e741 a352 0016 b0a7 d361 cd9e 745b 8018  .A.R.....a..t[..
	0x0030:  0106 d1c0 0000 0101 080a 53ed 5fdc fc24  ..........S._..$
	0x0040:  e483 30f6 7c10 7f8e 46a7 cc26 82a7 ae92  ..0.|...F..&....
	0x0050:  59a4 f9d9 797f ca8e aa0a 95ef 56c9 58cc  Y...y.......V.X.
	0x0060:  db56 ee1b 290d e49b 9b02 f503 804f 8446  .V..)........O.F
	0x0070:  f150 a0e4 8443                           .P...C
18:50:48.617479 IP 165.22.231.65.ssh > 180.76.235.75.41810: Flags [.], ack 556, win 507, options [nop,nop,TS val 4230276450 ecr 1408065500], length 0
	0x0000:  fe00 0000 0101 62f6 b6ea d50d 0800 4500  ......b.......E.
	0x0010:  0034 7d11 4000 4006 91c2 a516 e741 b44c  .4}.@.@......A.L
	0x0020:  eb4b 0016 a352 cd9e 745b b0a7 d395 8010  .K...R..t[......
	0x0030:  01fb 2c17 0000 0101 080a fc24 e562 53ed  ..,........$.bS.
	0x0040:  5fdc                                     _.
18:50:48.617664 IP 165.22.231.65.ssh > 180.76.235.75.41810: Flags [P.], seq 281:333, ack 556, win 507, options [nop,nop,TS val 4230276451 ecr 1408065500], length 52
	0x0000:  fe00 0000 0101 62f6 b6ea d50d 0800 4500  ......b.......E.
	0x0010:  0068 7d12 4000 4006 918d a516 e741 b44c  .h}.@.@......A.L
	0x0020:  eb4b 0016 a352 cd9e 745b b0a7 d395 8018  .K...R..t[......
	0x0030:  01fb 2c4b 0000 0101 080a fc24 e563 53ed  ..,K.......$.cS.
	0x0040:  5fdc 91d2 4e79 aa4e f20e b46b bc05 c40d  _...Ny.N...k....
	0x0050:  79d9 04ff d72b 388f a18c b197 d1f8 8b81  y....+8.........
	0x0060:  221b 40ee 0c7f efc6 af92 102c 8dc4 452f  ".@........,..E/
	0x0070:  4290 3226 afac                           B.2&..
18:50:48.664561 IP 119.29.155.249.43588 > 165.22.231.65.ssh: Flags [.], ack 1, win 262, options [nop,nop,TS val 752255806 ecr 1915177090], length 0
	0x0000:  62f6 b6ea d50d fe00 0000 0101 0800 4500  b.............E.
	0x0010:  0034 5cbe 4000 2c06 5297 771d 9bf9 a516  .4\.@.,.R.w.....
	0x0020:  e741 aa44 0016 dd4f f2fd 20f1 e061 8010  .A.D...O.....a..
	0x0030:  0106 ef8e 0000 0101 080a 2cd6 833e 7227  ..........,..>r'
	0x0040:  4882                                     H.
18:50:48.664623 IP 165.22.231.65 > 119.29.155.249: ICMP 165.22.231.65 tcp port ssh unreachable, length 60
	0x0000:  fe00 0000 0101 62f6 b6ea d50d 0800 45c0  ......b.......E.
	0x0010:  0050 a0f4 0000 4001 398a a516 e741 771d  .P....@.9....Aw.
	0x0020:  9bf9 0303 9c92 0000 0000 4500 0034 5cbe  ..........E..4\.
	0x0030:  4000 2c06 5297 771d 9bf9 a516 e741 aa44  @.,.R.w......A.D
	0x0040:  0016 dd4f f2fd 20f1 e061 8010 0106 ef8e  ...O.....a......
	0x0050:  0000 0101 080a 2cd6 833e 7227 4882       ......,..>r'H.
18:50:48.846109 IP 180.76.235.75.41810 > 165.22.231.65.ssh: Flags [P.], seq 556:640, ack 333, win 262, options [nop,nop,TS val 1408065728 ecr 4230276451], length 84
	0x0000:  62f6 b6ea d50d fe00 0000 0101 0800 4500  b.............E.
	0x0010:  0088 8385 4000 2d06 9dfa b44c eb4b a516  ....@.-....L.K..
	0x0020:  e741 a352 0016 b0a7 d395 cd9e 748f 8018  .A.R........t...
	0x0030:  0106 96fc 0000 0101 080a 53ed 60c0 fc24  ..........S.`..$
	0x0040:  e563 cebf eed6 049f 467d c97a f1e6 b565  .c......F}.z...e
	0x0050:  7fd8 f2e4 98d0 128c a1a7 5900 e226 bd98  ..........Y..&..
	0x0060:  d6f4 2d2b e0a2 bf74 e26a 81d9 7f3c 6bec  ..-+...t.j...<k.
	0x0070:  3ee6 0781 fe03 fd52 8f1a 3dfe b914 0c90  >......R..=.....
	0x0080:  4992 e0d9 3cdb 0021 fd88 a066 ae96 6860  I...<..!...f..h`
	0x0090:  cdd5 4cfe 8123                           ..L..#
18:50:48.890034 IP 165.22.231.65.ssh > 180.76.235.75.41810: Flags [.], ack 640, win 507, options [nop,nop,TS val 4230276723 ecr 1408065728], length 0
	0x0000:  fe00 0000 0101 62f6 b6ea d50d 0800 4500  ......b.......E.
	0x0010:  0034 7d13 4000 4006 91c0 a516 e741 b44c  .4}.@.@......A.L
	0x0020:  eb4b 0016 a352 cd9e 748f b0a7 d3e9 8010  .K...R..t.......
	0x0030:  01fb 2c17 0000 0101 080a fc24 e673 53ed  ..,........$.sS.
	0x0040:  60c0                                     `.

